:100000000C942A080C9462080C9462080C94C22A7E
:100010000C9462080C9462080C9462080C946208B8
:100020000C9462080C9462080C94D6180C949218E4
:100030000C9410250C9462080C9462080C946208CD
:100040000C9462080C9462080C9462080C94620888
:100050000C9462080C94AF190C9462080C9462081A
:100060000C9462080C9462080C9462080C94620868
:100070000C9462080C9462080C9462080C94620858
:100080000C9462080C9462080C9462080C94620848
:100090000C9462080C9462080C9462080C94620838
:1000A0000C9462080C9462080C9462080000000032
:1000B0001700150008001A001400290000000000B5
:1000C0000A000900070016000400E000E100E1005A
:1000D0000500190006001B001D00E200E300E3001C
:1000E00028244C004C00000000000000000000002C
:1000F0001C0018000C00120013002E00000000006D
:100100000B000D000E000F0033003400E500E50089
:10011000110010003600370038002D0028422C4115
:100120002B002A002A000000000000000000000050
:100130002200210020001F001E00290000000000F6
:1001400030002F002702260244002900E100E100D0
:100150001B000E000D0014003300E10023522C00A0
:100160002824E300265200000000000000000000E8
:10017000230024002500260027002E000000000098
:100180005000510052004F0016002D31E500E500EF
:100190004A004E004B004D001D00E50028002C00D9
:1001A000E600E7006500000000000000000000001D
:1001B0000500130009001A0014002B0000000000C5
:1001C0000A001700160015000400292139002F002D
:1001D0001900070006001B001D00E10023522C003F
:1001E0002824E30026520000000000000000000068
:1001F0000D000F0018001C003300A80000000000D4
:100200001000110008000C00AE00A931255230008A
:100210000E000B0036003700AD00AA0024522C005F
:10022000E600E7006500000000000000000000009C
:1002300001000100010001000100010000000000B8
:100240000100E100E000E200E300010047000100DE
:100250000100010001000100010001000100010096
:10026000010001000100000000000000000000008B
:100270004B004A0052004D00A9004C000000000055
:100280004E00500051004F00AA004900010001003B
:100290004800AC00AE00AB00A80046000100010021
:1002A000010001000100000000000000000000004B
:1002B0002200210020001F001E0035000000000069
:1002C0002202210220021F021E02350201002F021B
:1002D0002F002D00330033023100310201000100F4
:1002E000010001000100000000000000000000000B
:1002F000230024002500260027002E000000000017
:10030000230224022502260227022E0201003002C7
:1003100030002D023600370038003802010001009D
:1003200001000100010000000000000000000000CA
:1003300001004500440043004200010000000000AD
:100340000100410040003F003E00010001000100AB
:1003500001003D003C003B003A00010001000100AB
:10036000010001000100000000000000000000008A
:100370000100010001000100010001000000000077
:100380000100E500E400E200E700010001000100D7
:100390000100010001000100010001000100010055
:1003A000010001000100000000000000000000004A
:1003B00001000100405201000100010000000000A6
:1003C0000100010041520100010001000100010093
:1003D0000100010042520100010001000100010082
:1003E000010001000100000000000000000000000A
:1003F00001000100010001000100010000000000F7
:1004000020782578237827782178010001000100E1
:100410000100267824782878227801000100010064
:1004200001000100010000000000000000DA12815C
:10043000FFD9F1DB20A4A62EAF00A0C0D30000A1FD
:10044000C8D30000AED580A83F408D142000000125
:100450000101010101010101020202020202020284
:100460000203030303030303030404040404040456
:10047000050505050506060606060707070707081A
:10048000080808090909090A0A0A0B0B0B0C0C0CCD
:100490000D0D0D0E0E0E0F0F0F1010111111121267
:1004A00013131414151516161717181819191A1AE4
:1004B0001B1B1C1D1D1E1E1F202021222223242445
:1004C000252626272829292A2B2C2D2D2E2F303181
:1004D0003232333435363738393A3B3C3D3E3F4093
:1004E0004142434445464748494A4C4D4E4F50517E
:1004F0005354555658595A5B5D5E5F616264656638
:1005000068696B6C6D6F7072737577787A7B7D7EBE
:100510008082838587888A8C8E8F91939596989A0E
:100520009C9EA0A2A3A5A7A9ABADAFB1B3B5B7BA26
:10053000BCBEC0C2C4C6C9CBCDCFD1D4D6D8DBDDFA
:10054000DFE2E4E7E9EBEEF0F3F5F8FAFDFF00AFE8
:1005500000AE00000000000000000000000000806D
:1005600080C0E0F07078383C1C1E0E0E0E070707A6
:10057000070707070707070707070707070E0E0EF6
:100580001E1C3C387870F0E0C08080000000000045
:10059000000000000000000000000000000000005B
:1005A000000000000000000000000000000000004B
:1005B000000000000000000000000000000000003B
:1005C000000000000000000000000000000000002B
:1005D000000000000000000000C0E0F07C3E1F0FA3
:1005E00007030180C0E0F078383C1C1E0E0E0707A0
:1005F00087E77F1FFFFF1F7FE78707070E0E1E1C81
:100600003C3878F0E0C0800103070F1F3E7CF0E02B
:10061000C00000000000000000000000000000001A
:1006200000000000000000000000000000000000CA
:1006300000000000000000000000000000000000BA
:1006400000000000000000000000000000000000AA
:10065000000000000000F0FCFF1F07010000C0F0D8
:10066000FCFEFFF7F3B1B03030303030303078FE80
:1006700087010000FFFF00000187FE783030303036
:10068000303030B0B1F3F7FFFEFCF0C000000107DE
:100690001FFFFCF000000000000000000000000050
:1006A000000000000000000000000000000000004A
:1006B000000000000000000000000000000000003A
:1006C000000000000000000000000000000000002A
:1006D0000000000000FFFFFF0000000000FEFFFF21
:1006E0000101071E78E181838386868C8C9898B1FE
:1006F000B7FEF8E0FFFFE0F8FEB7B198988C8C8663
:1007000086838381E1781E070101FFFFFE00000060
:100710000000FFFFFF00000000FFFF0000C0C0302E
:10072000300000F0F0000000000000F0F00000F0E9
:10073000F0C0C030303030C0C000003030F3F300C3
:100740000000000000303030303030C0C000000009
:100750000000000000FFFFFF00000000007FFFFF1F
:100760008080E0781E8781C1C16161313119198DA6
:10077000ED7F1F07FFFF071F7FED8D1919313161D5
:1007800061C1C181871E78E08080FFFF7F0000008B
:100790000000FFFFFF000000003F3F03030C0C3090
:1007A00030000000003333333333330F0F00003F8A
:1007B0003F0000000000000000000030303F3F30EC
:1007C0003000000C0C3333333333333F3F00000031
:1007D0000000000000000F3FFFF8E0800000030F62
:1007E0003F7FFFEFCF8D0D0C0C0C0C0C0C0C1E7F03
:1007F000E1800000FFFF000080E17F1E0C0C0C0C6C
:100800000C0C0C0D8DCFEFFF7F3F0F03000080E03D
:10081000F8FF3F0F00000000000000000000000093
:1008200000000000000000000000000000000000C8
:1008300000000000000000000000000000000000B8
:1008400000000000000000000000000000000000A8
:1008500000000000000000000003070F3E7CF8F0DD
:10086000E0C0800103070F1E1C3C38787070E0E088
:10087000E1E7FEF8FFFFF8FEE7E1E0E070707838AE
:100880003C1C1E0F07030180C0E0F0F87C3E0F0700
:100890000300000000000000000000000000000055
:1008A0000000000000000000000000000000000048
:1008B0000000000000000000000000000000000038
:1008C0000000000000000000000000000000000028
:1008D0000000000000000000000000000000000117
:1008E0000103070F0E1E1C3C3878707070E0E0E0CA
:1008F000E0E0E0E0E0E0E0E0E0E0E0E0E070707048
:1009000078383C1C1E0E0F07030101000000000098
:1009100000000000000000000000000000000000D7
:1009200000000000000000000000000000000000C7
:1009300000000000000000000000000000000000B7
:1009400000000000000000000000000000000000A7
:10095000000020202020202020005343524C434BF5
:10096000200020202020202020004341504C434BD9
:10097000200020202020202020004E554D4C434BAD
:100980002000556E646566696E65640A0041646A9C
:100990007573740A0046756E6374696F6E0A00534E
:1009A000796D0A004E61760A00436F6C656D616B6C
:1009B0002D44480A0044766F72616B0A0051574516
:1009C0005254590A004C617965723A20007265767A
:1009D000310A0A004B797269612000808182838428
:1009E00085868788898A8B8C8D8E8F90919293943F
:1009F000A0A1A2A3A4A5A6A7A8A9AAABACADAEAF7F
:100A0000B0B1B2B3B4C0C1C2C3C4C5C6C7C8C9CAF5
:100A1000CBCCCDCECFD0D1D2D3D40005010980A18B
:100A200001850319012AB700150126B70095017544
:100A3000108100C0050C0901A101850419012AA03B
:100A400002150126A002950175108100C00501095B
:100A500006A101050719E029E7150025019508758C
:100A60000181029501750881010507190029FF150B
:100A70000026FF0095067508810005081901290563
:100A800015002501950575019102950175039101E8
:100A9000C009023B00020100A0FA090400000103A2
:100AA0000101000921110100012244000705810311
:100AB00008000109040100010300000009211101DF
:100AC000000122320007058203200001120100020A
:100AD000000000081D8D9D9D00010102000116030C
:100AE0004B0079007200690061002000720065000F
:100AF0007600310000001803730070006C0069007C
:100B000074006B0062002E0063006F006D00000037
:100B10000403090407087F0807003E5B4F5B3E00A3
:100B20003E6B4F6B3E001C3E7C3E1C00183C7E3CE6
:100B300018001C577D571C001C5E7F5E1C000018AF
:100B40003C180000FFE7C3E7FF000018241800006E
:100B5000FFE7DBE7FF0030483A060E002629792937
:100B60002600407F05050700407F05253F005A3CD1
:100B7000E73C5A007F3E1C1C0800081C1C3E7F00FE
:100B800014227F2214005F5F005F5F0006097F016F
:100B90007F00006689956A0060606060600094A2D2
:100BA000FFA2940008047E04080010207E2010009C
:100BB00008082A1C0800081C2A0808001E1010102B
:100BC00010000C1E0C1E0C0030383E383000060E93
:100BD0003E0E060000000000000000005F00000064
:100BE000000700070000147F147F1400242A7F2AC6
:100BF0001200231308646200364956205000000892
:100C000007030000001C224100000041221C0000DC
:100C10002A1C7F1C2A0008083E080800008070304B
:100C200000000808080808000000606000002010AC
:100C3000080402003E5149453E0000427F4000004A
:100C40007249494946002141494D33001814127F29
:100C500010002745454539003C4A494931004121AA
:100C600011090700364949493600464949291E00FD
:100C700000001400000000403400000000081422AE
:100C8000410014141414140000412214080002013D
:100C9000590906003E415D594E007C1211127C003C
:100CA0007F49494936003E41414122007F4141414F
:100CB0003E007F49494941007F09090901003E4141
:100CC000415173007F0808087F0000417F41000008
:100CD0002040413F01007F08142241007F404040F6
:100CE00040007F021C027F007F0408107F003E410D
:100CF00041413E007F09090906003E4151215E0045
:100D00007F091929460026494949320003017F011C
:100D100003003F4040403F001F2040201F003F4055
:100D200038403F0063140814630003047804030090
:100D30006159494D4300007F4141410002040810C0
:100D40002000004141417F000402010204004040B4
:100D50004040400000030708000020545478400041
:100D60007F28444438003844444428003844442808
:100D70007F0038545454180000087E09020018A45B
:100D8000A49C78007F080404780000447D400000A3
:100D90002040403D00007F102844000000417F407B
:100DA00000007C04780478007C080404780038444F
:100DB00044443800FC182424180018242418FC008B
:100DC0007C080404080048545454240004043F449C
:100DD00024003C4040207C001C2040201C003C4063
:100DE00030403C004428102844004C9090907C00F7
:100DF0004464544C44000008364100000000770071
:100E000000000041360800000201020402003C26F6
:100E100023263C00000000000000404040F0F8F8AD
:100E2000FF38FFF8F83FF8F8FF38FFF8F8F04040D7
:100E30004000000000000080C0C0C0800000C0C0B2
:100E40008000000080C0C000C0C0000080C0C000A2
:100E500000000000C0C0C0C0C000C0C00000000052
:100E60000000000000000000000000000000000082
:100E70000000000000000000000000000000000072
:100E80000000000000000000000000000000000062
:100E9000000000C0F0F8FC3E1E06010000007F418B
:100EA00041417F007F4141417F000080C0E07E5B87
:100EB0004F5BFEC00000C000DCD7DEDEDED7DC000A
:100EC000C000000000000000000000000000000062
:100ED00000000000000000000000494949FFFFFF3A
:100EE000FFE0DFBFBF00BFBFDFE0FFFFFFFF4949FB
:100EF0004900000000001F3F6060E0BF1F007F7FCF
:100F0000071E381E077F7F007F7F0E1F3B7160002A
:100F1000000000007F7F0C0C0C007E7E007F7E03B3
:100F200003007F7E03037E7E03037F7E000F3E70FF
:100F30003C063C703E0F00327B49493F7E007F7E7D
:100F40000303001E3F69696F2600000000000000D7
:100F5000000000030F1F3F3C7870600000007F41DD
:100F600041417F007F4141417F00307B7F783020CD
:100F70002030787F3B0003000F7F0F0F0F7F0F00A3
:100F8000030000000000000000000000000000005E
:100F900000000000000000000000010101070F0F29
:100FA0007F0F7F0F0F7E0F0F7F0F7F0F0F07010146
:100FB000010000000000000000000001010000002E
:100FC0000000000000000000000000000000000021
:100FD0000000000000000000000000000000000011
:100FE0000000000000000000000000000000000001
:100FF00000000000000000000000000000000000F1
:1010000000000000000000000000000000000000E0
:1010100000000000000000000000000000000000D0
:1010200000000000000000000000000000000000C0
:1010300000000000000000000000000000000000B0
:1010400000000000000000000000000000000000A0
:101050000000000011241FBECFEFDAE0DEBFCDBFDD
:1010600004B603FE18C080918A0790918B07A09167
:101070008C07B0918D078730904BA740B04B59F447
:1010800010928A0710928B0710928C0710928D078E
:10109000E0E0F8E3099511E0A0E0B1E0E2EBFAE569
:1010A00002C005900D92AC3CB107D9F727E0ACEC3B
:1010B000B1E001C01D92AA38B207E1F70E943725BE
:1010C0000C94FC2C0C940000482F20917B039091F1
:1010D000420357E0291302C080E0089530E0529F98
:1010E000F001539FF00D1124ED5BFC4F81816813DB
:1010F00006C08081481303C085818111EECF2F5F28
:101100003F4F2770E7CFE8EDF0E080818E7F80834E
:101110001092E2001092DA001092E100A0EEB0E02E
:101120008C9181608C9380818F77808319BCA7ED2F
:10113000B0E08C918E7F8C9380818F7E8083109223
:101140002B0308952091E4003091E50095E6A90174
:101150002091EC00822F817020FF06C08091E80072
:1011600080FF06C080E008952091E80022FD1AC0AB
:1011700080913803882389F0853089F08091EB00D5
:1011800085FD0FC02091E4003091E5004217530720
:10119000F9F29150E1F684E0089582E0089583E049
:1011A000089581E0089580913A0387FF13C08091EC
:1011B000E80082FF06C08091E8008B778093E8000A
:1011C00004C0809138038111F2CF089580913803D3
:1011D0008823D9F38091E80080FFF8CF8091E80060
:1011E0008E77ECCF982F9093E900242F762F50E044
:1011F000891731F07091EC002091ED005091F000D2
:1012000021FD07C09F5F973071F78093E90081E06F
:1012100008953091EB003E7F3093EB003091ED006C
:101220003D7F3093ED003091EB0031603093EB0067
:101230007093EC002093ED005093F0002091EE00AD
:1012400027FDE0CF80E00895B0E0A0E0EAE2F9E019
:101250000C94FC2BC8EDD0E088818F7E8883E7ED6D
:10126000F0E080818160808384E082BF81E08093B0
:101270002B0388818E7F888302EE10E0F8011082B4
:101280001092DA0081EEC82ED12CF60110828881EE
:101290008F77888388818068888388818F7D888321
:1012A00019BC109238031092390310923703109230
:1012B000360390EEE92EF12CF70180818B7F80833D
:1012C00088818160888342E060E080E00E94F208CB
:1012D000F60180818E7F8083F80180818160808328
:1012E000808188608083F70180818E7F8083888100
:1012F00080618883CDB7DEB7E8E00C94182CFC0140
:10130000809140039091410386179707A0F06115E3
:10131000710529F49091E8009E779093E80090E0A1
:101320006115710551F4911108C08091E80082FFA8
:1013300034C080E00895BC01F2CF80913803882347
:10134000C1F18530C1F18091E80083FD30C080910A
:10135000E80082FDEACF8091E80080FFE1CF809134
:10136000F3002091F200382F6115710519F0283033
:10137000310558F091E02830310509F090E02091D6
:10138000E8002E772093E800CBCF81918093F10085
:10139000615071092F5F3F4FE7CF80913803882359
:1013A00041F0853041F08091E80083FFBECF81E0BD
:1013B000089582E0089583E0089508950895809146
:1013C0002D0308952FB7F894609127037091280397
:1013D0008091290390912A032FBF08959C01FC015D
:1013E00032969FEF80E04191461751F09F3F19F4EC
:1013F000411101C0982F8F5F8630A9F79F3F09F4F4
:101400000895290F311D97FD3A95F90162830895DA
:10141000A3E0B0E0EEE0FAE00C94022C209124036B
:101420003091250328173907A1F090932503809365
:101430002403E0912203F0912303309751F024E03C
:1014400029839B838A830084F185E02DCE01019658
:1014500009952396E2E00C941E2CA3E0B0E0E3E3B0
:10146000FAE00C94022C20912003309121032817DC
:101470003907A1F09093210380932003E091220388
:10148000F0912303309751F023E029839B838A83D3
:101490000084F185E02DCE01019609952396E2E0C6
:1014A0000C941E2C80911E03882359F0E091220396
:1014B000F0912303309729F00190F081E02D0995F8
:1014C000089580E00895FC01680F791F8FEF91E384
:1014D0002191822728E030E087FF09C0880F892703
:1014E00021503109C9F7E617F70791F70895880FDA
:1014F000F7CF539A089590E06623A1F0805A9E4F4B
:10150000FC0120812F3F89F0E22FE295EF70F0E09F
:1015100080A190E02F7002C0959587952A95E2F7FB
:1015200081700895815A9E4FEBCF80E0089590E03E
:101530006623E9F0805A9E4FFC0180818F3FB1F015
:10154000E82FE295EF70F0E041A18F7021E030E0EC
:10155000B90102C0660F771F8A95E2F7CB01962F7B
:101560009095942391A392A1892B82A30895815AE7
:101570009E4FE2CF90911803E92FF0E040911903BC
:101580009F012F5F3F4F2370332742171306A9F0A7
:10159000E65EFC4F282F2F7780818078822B60FBBE
:1015A00087F980839F5F937090931803809116034F
:1015B0008F5F8093160381E0089580E00895FA011B
:1015C000811101C0FB01099508956091540180913A
:1015D000C00280FF0CC070E08091530123E0829F25
:1015E000C00111248C579D4F0E946E130895809165
:1015F00055019091560123E0829FF0011124EC5790
:10160000FD4F891740F71182108212828F5F339647
:10161000F8CF8091C002982F9C7F39F48091C0024E
:10162000837084608093C00208958830B8F708956D
:1016300080E0089581E080937F020895F894E82F78
:10164000E295EF70F0E031A1282F2F7081E090E05B
:1016500001C0880F2A95EAF7982F9095932391A3BC
:1016600092A1892B82A3789408950F931F93809160
:101670001E03882329F00E94E2091F910F9108950B
:101680000E94E209009157021091580220915902DC
:1016900030915A02600F711F821F931FEECF9091FD
:1016A000650292FF10C041E0282F2471243009F018
:1016B00040E031E0282F2871283009F030E043174E
:1016C00011F02CE0822793FF10C041E0282F2471F5
:1016D000243109F040E031E0282F2871283109F049
:1016E00030E0431711F02CE082273091660230FF82
:1016F00010C051E0282F2171213009F050E041E065
:10170000282F2871283009F040E0541711F029E003
:10171000822731FF10C041E0282F2171213109F0CB
:1017200040E031E0282F2871283109F030E04317DC
:1017300011F029E0822794FD877E08958238910573
:10174000B9F1B0F48133910509F47DC048F48932D0
:10175000910509F46DC08A32910509F47BC00895A2
:101760008533910509F45FC08933910509F1089526
:10177000833E9105D9F138F4803E910529F1823EEE
:10178000910579F10895863E9105D9F1873E91053D
:1017900009F43EC0843E910541F52091660221FF87
:1017A00024C08091650284FD19C087EE90E0089501
:1017B00020916502237009F05AC02091660223FF30
:1017C00014C089E290E008952091650220FD38C0A0
:1017D0003091660230FF09C024FF43C090E080E0F2
:1017E00008952091650222FDF7CF089520916502AA
:1017F00022FD3AC03091660230FD39C024FFF5CF9A
:10180000EDCF2091650223FFF0CF24FDE7CFCDCFB0
:101810002091650223FD2EC03091660231FFEECF8C
:1018200084EE90E008952091650225FFDECFC9CFB8
:101830002091650225FD21C02091660223FFD5CFAE
:1018400089E390E0D2CF2091650226FFCECF8AE2D5
:1018500090E008952091650226FFC7CF81E390E0D4
:10186000089583EE90E0089582EE90E0089580EE72
:1018700090E0089586EE90E0089585E390E0089565
:101880007830C0F46830B0F48730B8F498E0899FBD
:10189000F0011124E70FF11D83E0EE0FFF1F8A9581
:1018A000E1F7E60FF11DEE0FFF1FE455FF4F8591A5
:1018B0009491089580E090E0089581E0FCCF1F931B
:1018C000CF93DF930E949E0BEC01C11580E5D807F2
:1018D000F0F5C11580E4D80708F09CC0C03ED105E2
:1018E00020F5CD3CD10508F082C0C83AD10578F486
:1018F000C53AD10508F073C0C130D10519F1209760
:1019000009F1C430D105F0F4D0E0C0E01BC0C33C05
:10191000D105D0F7C85AD0E0CC0FDD1FCB59DE4F30
:101920000990D881C02DD4640DC0C11580E2D807BC
:1019300008F0D1C0C11581E0D80708F05AC0C83EF0
:10194000D10510F7CE01DF91CF911F910895C036D8
:1019500082E5D80718F5C03482E5D80708F06BC0D7
:10196000C03282E5D80708F05FC0C11582E5D8070C
:1019700008F497C02C2F2695269580E2289F900189
:1019800011248C2F8370C1E0D0E002C0CC0FDD1F8A
:101990008A95E2F7C22BD32BDD68D4CFC03A82E51B
:1019A000D80760F4C03882E5D80708F459C0CF7171
:1019B000D0E0DC2FCC27C46FD06AC4CFC03C82E516
:1019C000D80708F462C0C03E82E5D80708F09CCF73
:1019D000DC2FCC27CC27DF71C06FD06AB3CFC55ABC
:1019E000D0E0CE59DE4FC881D0E0D064ABCFD06517
:1019F000A9CF8D2F0E944F0B182FCE0199270E943F
:101A00009E0BC12FD0E0DC2FCC27CC27DF71C82B59
:101A1000D92B98CFCE0199270E949E0BCC27DF703F
:101A2000C82BD92BD06A8ECFCF71D0E0DC2FCC273A
:101A3000C16FD06A87CF2C2F26952695277080E21C
:101A4000289F900111248C2F8370C1E0D0E002C048
:101A5000CC0FDD1F8A95E2F7C22BD32BDC6872CF47
:101A60002C2F26952695277080E2289F900111241F
:101A70008C2F8370C1E0D0E002C0CC0FDD1F8A95AF
:101A8000E2F7C22BD32BDA685DCF8C2F8F710E94C7
:101A90004F0BC82FD0E0DC2FCC27CC27DF71D062D2
:101AA00051CF8C2F8F710E944F0B55E0D695C79563
:101AB0005A95E1F7CF70D0E0DC2FCC27282F30E00B
:101AC00084FF05C044E0220F331F4A95E1F7C22B83
:101AD000D32BD06937CF8D2F8F710E944F0B182FCA
:101AE000CE0199270E949E0BC12FD0E0DC2FCC277E
:101AF000CC27DF71C82BD92BD2CF809590910A02C9
:101B0000982390930A02089580917B039091420359
:101B1000981301C008958F5F8770FACFB0E0A0E0FE
:101B2000E4E9FDE00C94FB2B7C010091CA021091CA
:101B3000CB028091C8029091C902082B192BCFE0EB
:101B4000D0E0CC24C394D12CBC2EC6010C2E02C0F4
:101B5000880F991F0A94E2F780239123892B49F477
:101B6000219790F7B12C8B2DCDB7DEB7E9E00C941F
:101B7000172CB7018C2F0E94400C0E945F0C01971C
:101B800079F3F1CFCF93DF93EC010E948E0DBE016C
:101B90000E94400C0E945F0CDF91CF910895983015
:101BA00070F5883060F528E0929FF0011124E80F6D
:101BB000F11D6E2F677083E0F695E7958A95E1F742
:101BC000EE0FFF1FEE0FFF1FE852FE4F50E040E008
:101BD00080E0219130E0062E02C0369527950A94C8
:101BE000E2F721703327042E01C0220F0A94EAF78E
:101BF000822B4F5F5F4F4430510559F7089580E0C5
:101C00000895983090F5883080F528E0929FF00193
:101C10001124E80FF11D2E2F277041E001C0440F61
:101C20002A95EAF783E0F695E7958A95E1F7EE0FB6
:101C3000FF1FEE0FFF1FE852FE4F30E020E070E084
:101C40005191DF011197CB01022E02C09695879525
:101C50000A94E2F7817081958527842385278C93E8
:101C60002F5F3F4F2430310559F708959093CB02F1
:101C70008093CA02089521E030E002C0220F331F92
:101C80008A95E2F7209530958091CA029091CB0217
:101C9000822393230E94360E08959091FF01809530
:101CA00089238093FF01282F277069F4891759F041
:101CB0009091660292FF07C08695869586950E9450
:101CC0003B0E1092FF01089521E030E002C0220F88
:101CD000331F8A95E2F78091CA029091CB02822B42
:101CE000932B0E94360E08959093C9028093C802E8
:101CF0000895FC0124812223C1F0808191810E94FA
:101D0000C20D92959F70963091F058F4925F9F703B
:101D1000923058F4803F19F030F4883E30F481E07E
:101D200008959A5FF4CF843FD1F380E00895883E10
:101D3000B0F3813FD1F7F3CFA6E0B0E0E2EAFEE0F6
:101D40000C94012C49835A8349815A819923A1F02B
:101D5000222391F0CA010E948E0D182F682F8981CD
:101D60009A810E94010E69817A81812F0E94400C24
:101D70002696E3E00C941D2CCA010E94CF0D182F6B
:101D8000F2CFCF93DF93C0918807D09189078A3033
:101D9000C1F420917F03CE0182589340622F70E0FE
:101DA0000E94DE2B281B822F66E00E94292CC82F60
:101DB000C15018F4DF91CF91089580E20E94C10EC6
:101DC000F7CF8D30E9F4C258D34020917F03622FC2
:101DD00070E0CE010E94DE2B281B822F9E01280F6F
:101DE000311D2115344018F080E0D0E0C0E0C80F6C
:101DF000D11DCE57DC4FD0938907C0938807DACF27
:101E000096E0FE01A2E8B7E001900D929A95E1F705
:101E1000803E08F458C086E0FE0111928A95E9F7E9
:101E2000C0918807D091890746E050E0BE0182E862
:101E300097E00E948E2C9E0122583340892B41F15D
:101E4000C90146E0969587954A95E1F741E050E053
:101E5000BA0102C0660F771F8A95E2F7CB01609145
:101E6000800370918103862B972BB9016B5F7F4FA5
:101E7000E6E076956795EA95E1F702C0440F551FB5
:101E80006A95E2F7842B952B9093810380938003CE
:101E90002A5F3F4F40917F03642F70E0C9010E9489
:101EA000DE2B481B463010F4240F311D211574E041
:101EB000370710F030E020E02E573C4F3093890771
:101EC0002093880777CFF6E08F9FB00111246C5ED6
:101ED000744F46E050E0CE010E94852CA1CFCF93F5
:101EE000DF93EC01FE018491811103C0DF91CF915A
:101EF00008950E94C10E2196F5CF20910A0280918B
:101F00000102282B80910002882381F0282B30E0E9
:101F100080ED91E0FC014191CF0141113F5FF1E083
:101F2000863D9F07B9F73111109200022093CE0130
:101F300048E050E062E072E08EEC91E00E948E2C6E
:101F4000892BA9F088E0EEECF1E0A2E0B2E001908C
:101F50000D928A95E1F7E0912203F09123033097E7
:101F600031F00280F381E02D8EEC91E00995089527
:101F700010920A02E0EDF1E086E0DF011D928A9501
:101F8000E9F790E080E00E942D0A90E080E00E9456
:101F9000080A109201020E947D0F0895AAE2B0E0A3
:101FA000E4EDFFE00C94012C8AE393E02091F10032
:101FB000FC012193CF01F3E082349F07B9F78091B0
:101FC0003B03833009F470C0B8F4813009F447C092
:101FD000823009F4B1C08091E80083FF7EC2809115
:101FE0003A0390913B039A3008F077C2E92FF0E072
:101FF000E250F34D0C94492C8A3009F48CC08B309C
:1020000009F46FC0893039F780913A03813219F7AA
:1020100080913E0390913F030297E8F68091E8009B
:10202000877F8093E8008091E80082FF38C090911C
:10203000F3008091F200029731F48091F100813039
:1020400011F0863021F48091F10080932D0380916E
:10205000E8008B778093E8000E94D308BCCF809182
:102060003A03813A09F0B7CF8091E800877F8093E7
:10207000E80080913E0390913F03892B61F468E072
:102080008EE293E070E00E947F098091E8008B77F8
:102090008093E800A0CF60E090E080E0F3CF8091F3
:1020A00038038111C0CF97CF80913A03813A09F06C
:1020B00092CF80913E0390913F03892B09F08BCF03
:1020C0008091E800877F8093E8008091E80080FF9E
:1020D000FCCF809161018093F1008091E8008E77C0
:1020E000B9CF80913A03813209F075CF80913E03D8
:1020F00090913F03892B09F06ECF8091E800877F94
:102100008093E8000E94D30880913C038093610192
:102110000E94B80F60CF80913A03813209F05BCF03
:102120008091E800877F8093E8000E94D308809127
:102130003D0380932C034FCF80913A03813A09F0FD
:102140004ACF8091E800877F8093E8008091E80083
:1021500080FFFCCF80912C03BECF803899F082386D
:1021600009F0BBC180913E038F70873008F0B5C184
:102170008093E9008091EB0085FB882780F910921D
:10218000E90006C080913603909137039111826077
:102190009091E800977F9093E8008093F10010926F
:1021A000F1008091E8008E7794C1882309F482C100
:1021B000823009F092C180913C03811185C18091E8
:1021C0003E038F702FEF280F263008F086C18093D2
:1021D000E9002091EB0020FF77C1933031F480912A
:1021E000EB0080628093EB006FC19091EB009061F7
:1021F0009093EB0021E030E001C0220F8A95EAF7CE
:102200002093EA001092EA008091EB008860EACF08
:10221000811163C110913C031F778091E3008078A6
:10222000812B8093E3008091E800877F8093E80012
:102230000E94D3088091E80080FFFCCF8091E300EA
:1022400080688093E30082E0111183E0809338037B
:1022500044C18058823008F040C180913C03909185
:102260003D038C3D23E09207A1F583E08A838AE257
:1022700089834FB7F894DE01139620E03EE051E2E7
:10228000E32FF0E050935700E49120FF03C0E29564
:10229000EF703F5FEF708E2F90E0EA30C0F0C7968E
:1022A0008D939D932F5F243159F74FBF8091E800A4
:1022B000877F8093E8006AE270E0CE0101960E9479
:1022C0007F098091E8008B778093E80006C1C09673
:1022D000E7CF40913E0350913F03292F332723300E
:1022E000310509F444C078F52130310509F46FC097
:1022F0008BE390E0E1E9FAE02230310509F0EDC02E
:102300002091E800277F2093E8002091400330913E
:1023100041038217930708F49C0140E02115310521
:1023200009F064C0411162C08091E80082FDC9CF0C
:1023300080913803882329F2853019F28091E800D2
:1023400083FFF2CFBECF21323105A9F12232310510
:1023500009F0C3C04115510509F443C0413051058E
:1023600009F0BBC082E390E0EBE1FAE0C9CF992726
:1023700081309105C1F0009759F0029709F0ADC086
:10238000EEEDFAE0E4918E2F90E0EEEDFAE007C07A
:10239000E0E1FBE0E4918E2F90E0E0E1FBE00097CC
:1023A00009F49BC0ADCFE6EFFAE0E4918E2F90E008
:1023B000E6EFFAE0F4CF4115510571F041305105D7
:1023C00009F08BC089E090E0ECEBFAE099CF82E174
:1023D00090E0ECECFAE094CF89E090E0E3EAFAE0F8
:1023E0008FCF84E490E0EDE4FAE08ACF8091380367
:1023F000882309F466CF853009F463CF8091E80023
:1024000083FD5FCF8091E80082FD8ECF8091E80050
:1024100080FF84CF9091F3008091F2002115310567
:1024200019F08830910550F041E0089709F040E03C
:102430008091E8008E778093E80070CF44914093BC
:10244000F1003196215031090196E8CF803809F02A
:1024500044C08091E800877F8093E8008091390331
:102460008093F1009ECE811138C010913C03123050
:10247000A0F58091E800877F8093E80010933903EE
:102480000E94D308112311F084E005C08091E3007D
:1024900087FDFACF81E08093380342E061EC81E070
:1024A0000E94F20842E261EC82E00E94F208809110
:1024B000380313C080913C03813079F481E093307C
:1024C00009F080E0809337031092E9008091E800E2
:1024D000877F8093E8000E94D3088091E80083FF03
:1024E0000AC08091E800877F8093E8008091EB002C
:1024F00080628093EB00AA96E3E00C941D2C882365
:1025000021F00E947D0D0E947D0F0895882339F0EF
:1025100090910A02982B90930A020E947D0F0895D1
:10252000882391F19CEF980F913A80F4E0EDF1E06F
:1025300026ED31E09191891303C0DF0111971C92C0
:102540002E173F07B9F70E947D0F089590E2980F6C
:10255000983050F4877091E001C0990F8A95EAF79E
:10256000892F0E947D0DEFCF9BE5980F933028F4C3
:1025700090E080E00E942D0A0895885A8B3120F463
:1025800090E080E00E94080A0895CF93C82F882326
:10259000B1F08CEF8C0F813A00F5E0EDF1E086EDC3
:1025A00091E0DF012D91C21761F08A179B07D1F7E7
:1025B0006C2F8EEC91E00E94EE090E947D0FCF916E
:1025C00008952191C21303C0DF0111971C928E1749
:1025D0009F07B9F70E947D0FEBCF80E28C0F883008
:1025E00068F4C77021E030E001C0220FCA95EAF715
:1025F00080910A02822B80930A02DFCFEBE5EC0F79
:10260000E33040F4F0E0EE59FE4F808190E00E940C
:102610002D0AD5CFC85ACB3190F6EC2FF0E0EE0F53
:10262000FF1FEB59FE4F808191810E94080AC7CF9E
:102630000F931F93CF93DF938B01EA01909138039F
:10264000943061F58093E9008FEF9091E80081501C
:1026500095FD06C095ED9A95F1F700008111F5CF33
:102660008091E80085FF1AC00E94A208811111C064
:102670008091E80085FD06C08091E8008E77809308
:10268000E800F2CFF80181918F018093F10021974A
:1026900079F78091E8008E778093E800DF91CF9101
:1026A0001F910F91089543E050E0BC0182E00E9429
:1026B00018130895CF93DF93EC0148E050E0BC017C
:1026C00081E00E94181388E0FE01AEE2B3E00190C1
:1026D0000D928A95E1F7DF91CF9108954BB1477F35
:1026E0005BB15860EFB7F8949B01220F331F260FA0
:1026F000371F280F391F2817390741F4EFBF8FE51F
:1027000094E00197F1F700C000000895DC016D919D
:10271000CD0178E05BB9000000C067FF4BB9660FE0
:10272000000000C000C000C04BB900C07A9591F70E
:10273000E2CFB0E0A0E0EFE9F3E10C94FA2B7C01EA
:102740005B016A018091560201E010E08A3010F4CA
:102750000AE010E0C1E0D0E0B501C701F60109953B
:10276000811104C021960C171D072CF4CDB7DEB7DC
:10277000EAE00C94162CCC9F9001CD9F300D300DCB
:10278000112490E080E045E34A95F1F700000196BE
:1027900082179307C1F7E0CF0E94B80F2FEF84E3B1
:1027A0009CE0215080409040E1F700C0000088E1AB
:1027B0009CE00FB6F894A895809360000FBE9093AC
:1027C0006000FFCFAB0124E630E0BC0188E70E9447
:1027D000922921E0892B09F020E0822F0895809131
:1027E000120390911503911103C091E08927089578
:1027F000882369F062E070E080E595E00E94E213D2
:10280000811103C0809112030895109212038091E8
:102810001203EBCFCF93C09112038091150388234D
:10282000D1F00E94E209605A75418F4F9F4F60932B
:102830000E0370930F038093100390931103C11143
:1028400008C062E070E08EE495E00E94E21381111E
:1028500005C0C09112038C2FCF91089581E0809321
:102860001203F7CFB0E0A0E0E8E3F4E10C94F82B1A
:1028700049015A016B017C010E94090B8401A401EA
:102880006A2D7B2D88E090E00E94DA2C94014A2D7D
:102890005B2DB601C70100E20E946A2C622F83E221
:1028A00090E00E94C82CCDB7DEB7ECE00C94142C5D
:1028B000B0E0A0E0EEE5F4E10C94F82BD82FC62FA1
:1028C000142F822E0091C00200FF4FC08091C102E0
:1028D0008D1308C08091C202861304C08091C30288
:1028E000841729F080918302826080938302E02F15
:1028F000E695E695F0E0E754FE4F808180938102F3
:10290000802F8C7F8430D1F4E12FF0E0E25BFB4F2D
:10291000C11130C02491F22FE22F00FF0FC080912F
:1029200055019091560133E0839FD0011124AC579B
:10293000BD4F891708F493C00E94E50AD093C102E5
:10294000C093C2021093C302882079F02091C00284
:102950006091C4027091C5023D2F4C2F512F809180
:10296000C6029091C7020E943214CDB7DEB7ECE0E8
:102970000C94142CEC2EF12CE4919E2ECE2ED12C06
:1029800026E0D29FC00111242FEF30E0B9010E9450
:10299000DE2B8D2F90E0880F991FF5E5F69FA001A3
:1029A000F79F500D1124841B950BB82EBB0CB80E4D
:1029B000A9014E195F094C9DC0014D9D900D5C9D74
:1029C000900D1124F92FCB9DA0011124452F5527DF
:1029D000D901A41BB50BAC9DA001AD9D500DBC9DB4
:1029E000500D1124D901AB19B1095D01AE9CD00184
:1029F000AF9CB00DBE9CB00D1124AB2FBB272A1B82
:102A00003B0B2C9DD0012D9DB00D3C9DB00D112494
:102A10002B2F62307105A1F050F46115710509F496
:102A20007CCF6130710581F0292FF52F76CF64308E
:102A3000710569F080F06630710509F46ECFF4CF4E
:102A40002E2FE92FFB2F69CF2E2FE52F66CF292FB1
:102A5000FE2FEB2F62CFE92FF92D252F5ECF119698
:102A6000EC9311972C931296FC9312978F5F139609
:102A700060CFE0ECF2E0438121E1421B08F440E04A
:102A800021E0628181810E9458140895E0ECF2E017
:102A9000438121E1420F08F44FEF21E062818181FF
:102AA0000E9458140895E0ECF2E0628121E1621B7B
:102AB00008F460E021E0438181810E945814089568
:102AC000E0ECF2E0628121E1620F08F46FEF21E0B7
:102AD000438181810E9458140895E0ECF2E08181E5
:102AE00021E04381628188500E9458140895E0ECEF
:102AF000F2E0818121E043816281885F0E94581465
:102B000008958091C402882319F081508093C402F3
:102B10002091C0023091C1024091C2025091C30283
:102B20006091C4027091C5028091C6029091C70263
:102B30000E94321408958091C402833018F48F5F8C
:102B40008093C4022091C0023091C1024091C20220
:102B50005091C3026091C4027091C5028091C60277
:102B60009091C7020E94321408952091C00220FF64
:102B700024C0237024602093C0028091830281606E
:102B800080938302662381F03091C1024091C2029A
:102B90005091C3026091C4027091C5028091C60237
:102BA0009091C7020E94321420E04091C3026091CC
:102BB000C2028091C1020E94581408958091C002FF
:102BC00086958695815009F481E061E00E94B515F3
:102BD000089561E081E00E94B51508959091660224
:102BE00092FB222720F9281779F080FB92F9909325
:102BF0006602609165027091660284E090E00E9436
:102C0000E62C82E00E944D0E0895A4E0B0E0EBE0D7
:102C1000F6E10C94012C40914A0250914B026091D4
:102C20004C0270914D022FB7F89480912703909138
:102C30002803A0912903B0912A032FBF841B950B71
:102C4000A60BB70B11E084369105A105B10570F113
:102C50000E94350B6E5F7F4F8F4F9F4F69837A8342
:102C60008B839C838091310190913201885D9D4FCF
:102C70004091300150E04530510510F044E050E003
:102C8000BE016F5F7F4F0E949B2C86E090E00E9408
:102C9000682B182F882351F00E94E20960934A02A2
:102CA00070934B0280934C0290934D02812F249697
:102CB000E3E00C941D2C4F925F926F927F928F9263
:102CC0009F92AF92BF92EF92FF920F931F93CF9379
:102CD000DF937B01FB0140805180628073809FB74E
:102CE000F8948090270390902803A0902903B09037
:102CF0002A039FBF84189508A608B708F4E68F1624
:102D00009104A104B10418F4C1E0442329F1C82FAF
:102D1000880FDD0BFE0183E0EE0FFF1F8A95E1F7C0
:102D2000E050FF4F81819281885D9D4F408150E04E
:102D30000417150708F4A801B9010E949B2CCE01C5
:102D40000E94682BC82F882339F00E94E209F701FE
:102D500060837183828393838C2FDF91CF911F9146
:102D60000F91FF90EF90BF90AF909F908F907F90CA
:102D70006F905F904F900895A1E0B0E0E2ECF6E133
:102D80000C94002C8091120389832091490290E0D9
:102D900041E02817190609F440E001E010E09E0127
:102DA0002F5F3F4F62E572E088E00E945B1621963C
:102DB000E4E00C941C2CABE0B0E0E1EEF6E10C9406
:102DC000002C88E0E0ECF2E0DE01119601900D921B
:102DD0008A95E1F78091810290918202A09183020D
:102DE00089879A87AB8741E08B85811101C040E0DC
:102DF0000BE010E09E012F5F3F4F6EE472E087E032
:102E00000E945B168111109283022B96E4E00C94D1
:102E10001C2C0F931F93CF93DF93EC0144E050E001
:102E20006DE272E00E948E2C41E0892B09F440E0B3
:102E300004E010E09E016FE172E082E00E945B1608
:102E4000DF91CF911F910F9108954F925F927F92E2
:102E50008F929F92AF92BF92CF92DF92EF92FF92AA
:102E60000F931F93CF93DF930F92CDB7DEB7C62E8C
:102E70004A015901482E880F5508C2010E94682B4B
:102E8000782E882309F480C0C20133E0880F991F8F
:102E90003A95E1F7FC01E050FF4F438150E04115C6
:102EA000510511F041E050E080509F4FFC016481DA
:102EB0007581685D7D4FCE0101960E949B2CF401C7
:102EC00040815181628173812FB7F89480912703EB
:102ED00090912803A0912903B0912A032FBF841B4E
:102EE000950BA60BB70B84369105A105B10540F4EF
:102EF000B701C8010E94630A9981891709F444C087
:102F00000C2C000CDD08C6010E94682B782E811164
:102F100013C0712C872D0F90DF91CF911F910F91CE
:102F2000FF90EF90DF90CF90BF90AF909F908F90E9
:102F30007F905F904F900895C60123E0880F991FFE
:102F40002A95E1F7FC01E050FF4F438150E0E41681
:102F5000F50608F4A70180509F4FFC01648175813C
:102F6000685D7D4FC5010E949B2CB701C8010E947E
:102F7000630A99818913CDCF0E94E209F40160832D
:102F8000718382839383C6CFA701B801C5010E94D4
:102F90009B2CC0CFA8E0B0E0E0EDF7E10C94FE2B55
:102FA00088E0E82EF12C02E312E09E012F5F3F4FF4
:102FB00044E252E064E083E00E942517082F882352
:102FC00089F19091310280912302981759F110E014
:102FD00090913502809134028917F1F0E92FF0E0E9
:102FE000E45DFD4F828587FB662760F99F5F9370E4
:102FF00090933502909133029F5F909333028F77C5
:103000000E94BA0A182F8111E3CF85E090E00E9458
:10301000682B012F082302C01111F7CF80913102D4
:1030200080932302802F2896E6E00C941A2CA4E0CB
:10303000B0E0EDE1F8E10C94FC2B6B0184E0E82EAC
:10304000F12C09E212E09E012F5F3F4F4BE152E06D
:1030500061E080E00E942517882361F049815A8150
:103060006B817C8140931702509318026093190280
:1030700070931A0240911702509118026091190240
:1030800070911A02F6014083518362837383249600
:10309000E8E00C94182C1F93CF93DF93182FEB01CB
:1030A0000E94C512209739F4812F0E949012DF915F
:1030B000CF911F9108958FE99FE00197F1F700C02C
:1030C00000002197EFCF80E0909119032091180321
:1030D000291739F1E92FF0E0E65EFC4F808187FB8C
:1030E000222720F98F779F5F937090931903909117
:1030F00017039F5F90931703882349F0813079F479
:1031000070E060E08EE4211108C08BE406C070E03E
:1031100060E089EA211101C08AEA0E944B1881E02F
:10312000D3CF08951F920F920FB60F9211242F93B1
:103130003F934F935F936F937F938F939F93AF933F
:10314000BF93CF93DF93EF93FF93D091E900DF70AC
:103150008091EC00C82FC17080FDC0E81092E9009A
:103160008091F000877F8093F00078940E94CE0FCA
:103170001092E9008091F00088608093F000CD2BE0
:10318000CF70C093E900FF91EF91DF91CF91BF9194
:10319000AF919F918F917F916F915F914F913F91EF
:1031A0002F910F900FBE0F901F9018951F920F92A6
:1031B0000FB60F9211242F933F934F935F936F930A
:1031C0007F938F939F93AF93BF93EF93FF938091E0
:1031D000E10082FF09C08091E20082FF05C080917A
:1031E000E1008B7F8093E1008091DA0080FF24C0B2
:1031F0008091D80080FF20C08091DA008E7F80937C
:10320000DA008091D90080FF9DC080E189BD82E114
:1032100089BD09B400FEFDCF81E080933803809121
:103220002B03811109C00E9483080E942409809108
:10323000E20084608093E2008091E10080FF17C08B
:103240008091E20080FF13C08091E2008E7F809326
:10325000E2008091E20080618093E2008091D800DA
:1032600080628093D80019BC85E0809338038091F8
:10327000E10084FF2BC08091E20084FF27C080E141
:1032800089BD82E189BD89B5982F917080FFFBCF00
:103290008091D8008F7D8093D8008091E1008F7E4F
:1032A0008093E1008091E2008F7E8093E200809124
:1032B000E20081608093E20080913903882309F461
:1032C00047C084E080933803809138038091E10007
:1032D00083FF27C08091E20083FF23C08091E1003B
:1032E000877F8093E10082E0809338031092390356
:1032F0008091E1008E7F8093E1008091E2008E7FDB
:103300008093E2008091E20080618093E20042E0DD
:1033100060E080E00E94F2088091F0008860809375
:10332000F000FF91EF91BF91AF919F918F917F91AD
:103330006F915F914F913F912F910F900FBE0F9022
:103340001F90189519BC1092380310922B0374CF5C
:103350008091E30087FD93E090933803B5CF789494
:103360001F921FB61F9211248F939F93AF93BF9309
:103370008091270390912803A0912903B0912A03FB
:103380000196A11DB11D8093270390932803A0935C
:103390002903B0932A03BF91AF919F918F911F9002
:1033A0001FBE1F9018959C014FB7F894809127037A
:1033B00090912803A0912903B0912A034FBF821B4B
:1033C000930B08952FB7F8948091270390912803C9
:1033D000A0912903B0912A032FBF08950F931F9343
:1033E000CF93DF93C62FD42F022FFC018581882332
:1033F000A9F060937E030E94E21990937D0380936D
:103400007C03C77081E001C0880FCA95EAF70E946B
:103410008612DF91CF911F910F91089580917E03C5
:10342000681334C080917C0390917D030E94D3196E
:10343000883C910558F510E21D0FCD17B9F080E2D8
:103440008C0F883040F4C77081E001C0880FCA95A6
:10345000EAF70E947F12183048F481E09D2F9770A0
:1034600001C0880F9A95EAF70E94861270E060E02A
:10347000802F0E944B18183060F6D77081E001C091
:10348000880FDA95EAF70E947F12C3CFC77081E0F8
:1034900001C0880FCA95EAF7F6CFB0E0A0E0E3E5F7
:1034A000FAE10C94FA2B8C01FC018481882341F110
:1034B00021E0408151816281738195810E949C0E3F
:1034C000EC01FC01E851FC47E730F105A8F5E85FA5
:1034D000F24D0C94492C26E241EE61EEC8010E94A7
:1034E000EE198091FF01877059F0F80185818823DA
:1034F00039F08091660282FF03C082E00E944D0E87
:10350000CDB7DEB7EAE00C94162C27E245EE65EE67
:10351000E5CF26E241EE60EEE1CF27E245EE64EE34
:10352000DDCF26E241EE62EED9CF27E245EE66EE30
:10353000D5CF28E241E0EBCFF8018581882309F45B
:10354000EFC310927E03CE019057839708F0D2C349
:1035500084E090E00E94B22C909366028093650212
:10356000FE01E150F047E232F10520F4E15FF24D57
:103570000C94492C8091650281608093650295C00E
:10358000809166028860809366028FC08091650298
:103590008260F3CF809165028460EFCF80916502F5
:1035A0008860EBCF809166028160EDCF80916602EA
:1035B0008260E9CF809165028061DFCF80916502F2
:1035C0008062DBCF809165028064D7CF0E94B80F04
:1035D000809165028068D1CF809165028C60CDCFEB
:1035E000809166028360CFCF809165028E7FC5CFC8
:1035F00080916602877FC7CF809165028D7FBDCFA6
:10360000809165028B7FB9CF80916502877FB5CFAE
:10361000809166028E7FB7CF809166028D7FB3CF97
:10362000809165028F7EA9CF809165028F7DA5CFA5
:10363000809165028F7BA1CF0E94B80F80916502B7
:103640008F779BCF80916502837F97CF80916602B1
:103650008C7F99CF8091650282FB992790F921E0B8
:10366000922790FB82F990FB83F987CF80916602C5
:10367000982F909591708E7F892B90FB81F983CF45
:1036800090916502892F8F7B96FF806476CF0E9490
:10369000B80F90916502892F97FB87F980586DCFFD
:1036A00061E08EE090E00E94C82C6091650270910C
:1036B000660284E090E00E94E62C0E94B80F11CFD1
:1036C00060E0EFCF90916502892F8F7E94FF80613B
:1036D00054CF90916502892F8E7F90FF81604DCFEE
:1036E00090916602892F877F93FF88604CCF85E396
:1036F00020C38091C00280FF1CC0282F2E7F209302
:10370000C0023091C1024091C2025091C302609147
:10371000C4027091C5028091C6029091C7020E94B6
:103720003214809183028160809383020E94E50AB3
:10373000D8CE81608093C00261E0869586950E9414
:10374000B515CFCE4EED55E169EE75E10E94DF0A69
:10375000C8CE49EE55E16EED75E1F8CF4DE655E185
:1037600067E775E1F3CF47E755E16DE675E1EECF29
:1037700043E555E160E675E1E9CF40E655E163E5F3
:1037800075E1E4CF49E355E166E475E1DFCF46E456
:1037900055E169E375E1DACF41E855E16BE975E19F
:1037A000D5CF4BE955E161E875E1D0CF61E081E02B
:1037B000C6CF0E94B80FFFEF24E33CE0F150204059
:1037C0003040E1F700C0000081E08093E00080E23B
:1037D0008093D8001092C9008FE19EE40197F1F721
:1037E00000C0000087E090EBDC0180938A07909393
:1037F0008B07A0938C07B0938D0788E19CE00FB6F0
:10380000F894A895809360000FBE90936000FFCF5E
:103810006FEF7FEF90E080E00E94E62C0E94CC13D7
:103820008091660282FB882780F991E089270E94B7
:10383000EE15F8018581C081D181882309F44DC03E
:10384000CE010E948E0DF82E682FCE010E94010E2F
:10385000BE018F2D0E94400C0E945F0CD82FC92FF3
:10386000A82EF801C580B680B2943FE0B3228091C3
:10387000FF01877009F1EC2CCC20F9F0892F807FB3
:10388000803469F080E28D0F8830B0F0892F807E1F
:10389000803229F4F1E0FD1778F4BB2069F08091C3
:1038A000660282FF09C082E00E944D0E8091FF01F6
:1038B0008770EE24E3948111E12CDC2ED2942FE06A
:1038C000D2222BE02D1508F46DC0ED2DF0E0EF5C59
:1038D000F24D0C94492C80E0AACFCE010E94CF0D6E
:1038E000F82EB6CF3C2F3F70F32EC07F19F0F29424
:1038F00090EFF922CC20B9F0FF2069F080E28D0F23
:10390000883010F0A11009C080910A02F82AF092C4
:103910000A020E947D0F8D2F43C080910102F82A78
:10392000F0920102F6CF8D2F0E949012FF20D1F16C
:10393000D05ED83010F0A11004C08F2D0E947D0DF4
:1039400006C0F09480910102F822F09201020E94D8
:103950007D0F28C08C2F8F70F82EC07FC03219F0D9
:10396000F29480EFF822AA2059F091E0A91609F408
:1039700078C0CC2009F484C0BB2009F446C0CBCF6A
:103980008091660282FD3DC0CC20A9F1FF2039F074
:1039900080910A02F82AF0920A020E947D0F80E0CC
:1039A0000E94C512ED2DE850FF0B349710F40E94D1
:1039B000520AEE20A9F08091FF0180FD11C0F801AC
:1039C00015828695869586950E94640EC8010E9490
:1039D0004D1A8091FF018695869586950E943B0E33
:1039E00020E0F80140815181628173818481958159
:1039F0000E949C0E85CD80E00E949012FF2091F2E3
:103A00009CCFCC20A1F0B11004C08F2D0E94861253
:103A1000C9CFE1E0BE12C6CF809100029F2D98234E
:103A2000F91609F4BFCFF82AF0920002BBCFB1100B
:103A3000B9CF8F2D0E947F12909100028F2D892384
:103A400029F08F2D80958923809300028091D701E2
:103A50009F2D982309F4A6CFF094F822F092D70175
:103A6000A1CFCC2029F0F5E0FB1508F49BCFCDCFFA
:103A700024E02B1508F496CF8F2D0E947F1292CF51
:103A8000BB20D1F339E3A31209C08FEF97EEE3E037
:103A900081509040E040E1F700C000008D2F0E946F
:103AA000901280CF8C2F86958695837069F0813037
:103AB00009F078CF8D2F9C2F9370C11002C080E049
:103AC00090E00E94080A6ECF8D2F9C2F9370C1103A
:103AD00002C080E090E00E942D0A64CF8C2F83709A
:103AE00009F03FC0C1105ECF4D2F429546954770FB
:103AF000440F440F2D2F2F7030E0042E02C0220FF0
:103B0000331F0A94E2F790E080E0D4FF09C08FE011
:103B100090E002C0880F991F4A95E2F78095909532
:103B2000C695C695C370C23099F078F44091C8022A
:103B30005091C902C13039F0822B932B84239523F5
:103B40000E94740E2FCF242B352B822B932BF8CF72
:103B5000822B932B2091C8023091C9028227932790
:103B6000EFCF8695CC2011F08C2F8170882309F43B
:103B700019CF4D2F429546954770440F440F2D2F76
:103B80002F7030E0042E02C0220F331F0A94E2F798
:103B900090E080E0D4FF09C08FE090E002C0880F81
:103BA000991F4A95E2F780959095C695C695C37082
:103BB000C23099F078F44091CA025091CB02C130E2
:103BC00039F0822B932B842395230E94360EEACE64
:103BD000242B352B822B932BF8CF822B932B2091E8
:103BE000CA023091CB0282279327EFCFCF70CC202F
:103BF00029F08C2F0E94640E8D2F08CF8D2F0E94EC
:103C00007F128C2F0E943B0ECDCE8D2FF2EFAF1680
:103C100099F1FA1570F020EFA216D1F031EFA3164A
:103C200091F0CC2009F456C0B11075CE8C2F8F7155
:103C300027C093EFA91639F1E4EFAE12F2CF9091BD
:103C4000660292FD2EC08C2F8F71CC20D9F218C045
:103C5000CC2069F0F4E0FB1508F4A4CECF7181E02C
:103C600090E002C0880F991FCA95E2F7B8CF25E00F
:103C70002B1508F497CEF2CF8C2F8F71C110C2CFC5
:103C80000E94640E8FCE90E080E0CC2009F49DCF9E
:103C9000CF7181E090E002C0880F991FCA95E2F7CA
:103CA00094CFCC2061F08C2F8F7192FFE9CF98E0F8
:103CB000899F9001112423602093FF01E1CF81E0CF
:103CC0000E944D0EE1E0EB1508F06CCE82E00E9400
:103CD0004D0E68CEBB2059F0893309F0DFCEFFEFDF
:103CE00027EE33E0F15020403040E1F7D5CE8C2F65
:103CF0008F7188CFC631FCE7DF0749F580910A0252
:103D00008A7A91E009F490E09093D60169E28111FA
:103D100065E38EEC91E00E94EE090E947D0FE1CBFD
:103D2000C6312CE7D20799F58091D6018111DFCCFD
:103D300089E2E0EDF1E026ED31E09191891303C0D5
:103D4000DF0111971C922E173F07B9F7E6CFC3305A
:103D50003CE7D30709F45CCD50F4C1159CE7D907C3
:103D600009F427CDC130DC4709F458CD62CDCB35FD
:103D7000FCE7DF0709F4AFCDCC352CE7D20709F417
:103D80004FCDCA35DC4709F054CD81E050CD80914C
:103D90000A028272FE01E052F847E531F10508F0AF
:103DA00048CDE35CF24D0C94492CCF93DF93809186
:103DB000FE01807F09F04DC08091FD01882309F448
:103DC00048C0E0917B0350914203C091F901D0912A
:103DD000F8016091FA017091FB0147E05E17C9F1AB
:103DE0008E2F90E0E49FF0011124ED5BFC4F2481C5
:103DF000222391F1489FF001499FF00D1124DF012A
:103E0000AD5BBC4F11962C9111972C1325C02C91B2
:103E10002D1322C015962C91159721111DC01296B5
:103E20002D913C91261B370B283C3105A8F480913D
:103E3000FE018F7080618093FE01E75BFC4F808103
:103E40008F708061808388EF91E00E944D1A0E94FC
:103E5000840DDF91CF910895FC013196E770BECFBC
:103E6000A4E1B0E0E6E3FFE10C94F82B8C0186E0DE
:103E7000F801DE011F9601900D928A95E1F7F80195
:103E80008481E58098EFA92E91E0B92E9091FC01F4
:103E9000911128C0882319F1EE20F1F0C8010E9489
:103EA000790EF82E8823C1F087E0F801D501019042
:103EB0000D928A95E1F78091FC01813031F4809177
:103EC000F8019091F9010E94C20D0E94D51E8F2D1C
:103ED0006496ECE00C94142CC8010E944D1AFF2447
:103EE000F394F5CFD080C18082809380F090FD0163
:103EF0002091FA013091FB01A401421B530BFF20DA
:103F000009F4D9C0483C510508F092C08823F9F261
:103F10009091F9018091FE01282F207F09F056C071
:103F2000C91214C09091F801D91210C0E11048C014
:103F30008F7080618093FE0188EF91E00E944D1A9E
:103F40008091FE01F8018683F12CC1CFE11038C0C9
:103F50006C2D8D2D0E9464086C2D8D2D0E9464089F
:103F6000E82E8111F1CFDF86C88A8F8598890E945B
:103F7000C20D292F22952F70243058F49F702230C3
:103F800088F0992399F0F8019681907F79F4FE2CBE
:103F90009ECF2A5F2F70223068F0C8010E944D1A10
:103FA000EF2CF5CF992311F0882389F3805E8830B8
:103FB00070F3F3CF803F58F3815F833070F7E7CF22
:103FC0008091FE0181608093FE01BECFC91207C0BF
:103FD0009091F801D91203C0EE2009F48DC0C801F8
:103FE0000E94790E882309F477CFEE2009F474CF6C
:103FF0008091FE01803288F02091F8013091F90122
:10400000398728879B868A869091FC019C871D862C
:104010008E87CE0108960E944D1A87E0F801A8EF1E
:10402000B1E001900D928A95E1F70E94D51E57CF1D
:104030009091FE01292F207F51F488EF91E00E949A
:104040004D1A87E0F50111928A95E9F77DCF882313
:1040500009F43DCF8091F9018C1110C08091F801D5
:10406000D8120CC0E1100AC09683C8010E944D1AF4
:1040700087E0F50111928A95E9F729CFC8010E94DE
:10408000790E882309F428CFEE2009F425CF8091FA
:10409000FE01803210F22091F8013091F9013A834B
:1040A00029839C828B829091FC019D831E828F8349
:1040B000CE010196B0CF483C5105D0F6882309F4D3
:1040C0000ECFFE2CEE2009F407CF8091F9018C1160
:1040D00020C08091F801D8121CC08091FE0180FDA3
:1040E0000FC0982F907F61F08683903F31F0982F1A
:1040F000907F905F8F70892B8683C8010E944D1A34
:1041000087E0F801A8EFB1E001900D928A95E1F700
:10411000DECEC8010E94790E81117FCF8091FE0111
:1041200081608093FE01C8010E944D1AD0CEABE1A0
:10413000B0E0EDE9F0E20C94002C4E8B5F8B688FC1
:10414000798F8A8F9B8F192F9111109201021D8AEE
:1041500086E0FE017696DE011F9601900D928A950B
:10416000E1F70A8D002341F021E04F8558896989E4
:104170007A89C8010E949C0E0B8B1C8B87E0FE0184
:104180003F96DE01189601900D928A95E1F7CE01D7
:1041900008960E94301F81112AC087E0FE013896E0
:1041A000DE01119601900D928A95E1F78C858823A6
:1041B000F1F02091420330E0C90101968770992700
:1041C00040917B0348171906E9F097E0929FD001D0
:1041D000939FB00D1124AD5BBC4FFE013196019051
:1041E0000D929A95E1F7809342030E94840D17E0A7
:1041F00080917B0390914203891312C06B96E4E097
:104200000C941C2C0E94B80F1092420310927B0356
:1042100087E0E8EFF1E0DF011D928A95E9F7E7CF4B
:10422000819FC00111248D5B9C4F0E94301F882309
:1042300029F380917B0390E0019687709927809302
:104240007B03D6CF2F923F925F926F927F928F9295
:104250009F92AF92BF92CF92DF92EF92FF920F9315
:104260001F93CF93DF9380911503882309F49EC099
:1042700080911303909114030E94D319C29708F4FC
:1042800075C00E94E219909314038093130382E88F
:1042900093E0909389078093880780911E03882379
:1042A00009F4A8C08BED99E00E946F0F84ED99E0AE
:1042B0000E946F0F8DEC99E00E946F0F85EC99E0E2
:1042C0000E946F0F8091CA029091CB022091C80288
:1042D0003091C902822B932B292F3327E0E021153F
:1042E000310511F0C901E8E09C01B4E0369527954D
:1042F000BA95E1F72115310511F0EC5FC9019C0178
:1043000036952795369527952115310511F0EE5FE5
:10431000C90196958795892B09F0EF5F82E899E0AE
:10432000E73038F4F0E0EE5AF24D0C94492C8DEB66
:1043300099E00E946F0F0E94520AC82F82E799E00D
:10434000C0FF02C08AE799E00E946F0F82E699E001
:10435000C1FF02C08AE699E00E946F0F82E599E0F2
:10436000C2FF02C08AE599E00E946F0F809180032E
:1043700090918103892B09F06AC0809112038823F0
:10438000A9F00E94E20900910E0310910F03209101
:10439000100330911103601B710B820B930B6F3F65
:1043A0007F4F8F4F9F4710F40E94EF13DF91CF9103
:1043B0001F910F91FF90EF90DF90CF90BF90AF9043
:1043C0009F908F907F906F905F903F902F90089577
:1043D00085EB99E0AECF89EA99E0ABCF84EA99E02A
:1043E000A8CF8FE999E0A5CF85E999E0A2CF8DE824
:1043F00099E09FCF2091800330918103A2E8B3E040
:1044000090E080E041E050E0FC01EE5AFA4FE49188
:104410006D91E61791F0ED012197E883BC01E6E08C
:1044200076956795EA95E1F7EA0102C0CC0FDD1FAA
:104430006A95E2F7BE012C2B372B01968115D4E04B
:104440009D0711F730938103209380038FCF8091D4
:104450001503882309F491CF80910D0381118DCF2D
:104460000E940A14209180033091810321153105A7
:1044700009F483CF80E041E050E0082F10E01A01FA
:10448000082E02C0220C331C0A94E2F7B101622309
:104490007323672B11F48F5FF0CF90910C0390FF83
:1044A00095C0880F880F880F80935A0110925D0184
:1044B000895F80935B0187E080935E0124E630E0B2
:1044C00047E050E068E571E088E70E944E29892BBB
:1044D00009F053CFA80126E0440F551F2A95E1F7B4
:1044E00080910C0380FF83C0ECECF2E080E4DF01FC
:1044F0001D928A95E9F7A3ECB1E00BEB11E08BEC90
:10450000C82E81E0D82E97E0592E772473948D9190
:10451000E80129918E01240F352F311D2E573C4F74
:10452000E82FF0E0E453FD4F90E080E0652C681A3E
:10453000872C082E01C0880C0A94EAF77901A12C77
:10454000E701B9907E01B820662D6A196770962E32
:10455000062E000C770BDB2D01C0DD0F9A94EAF7D5
:104560007195619571096770772701C0B6946A9556
:10457000EAF7BD2A6081962E9B289082A39468E07A
:10458000A612DECF019631968830910579F6CA16CB
:10459000DB0609F0BCCF04E610E020E430E04CEC90
:1045A00052E060E488E70E94D829892B09F0E5CE23
:1045B000E101C095D0958091800390918103C8233B
:1045C000D923D0938103C0938003D7CE8295880FDF
:1045D000880F807480935A0198013695279520930F
:1045E0005D01815C80935B0120935E0167CF4E5734
:1045F0005C4F04E610E020E430E0D3CFA3E1B0E06C
:10460000E4E0F3E20C94F72B8E01045F1F4F88E087
:10461000D8011D928A95E9F78DE9C82E81E0D82E40
:10462000F12CE12CAA24A394B12C29EA822E21E0BA
:10463000922EF60181916F018F3F09F442C0F894E8
:10464000E82FE295EF70F0E021A18F70A50102C084
:10465000440F551F8A95E2F7CA01922F982B91A318
:1046600092A18095892382A3789400C0E1EAF1E0C9
:10467000712C31E021912F3F09F4B9C0A22FA295EE
:10468000AF70B0E090968C9190E02F7002C095953D
:1046900087952A95E2F780FDAAC0832F782A330FE9
:1046A0008E169F0639F7F601319780818F3F11F002
:1046B0000E941E0B50EA5A95F1F7F801EE0DFF1D0E
:1046C00070828FEFE81AF80A94E0E916F10409F015
:1046D000B0CF48E050E0B8018BE592E00E948E2C0C
:1046E000009741F028E0F801ABE5B2E001900D92AF
:1046F0002A95E1F70091640210E008591D4F892BBB
:1047000009F477C081E080930F020E94E219909330
:104710000E0280930D02F12CE0901E03EE2009F4AE
:10472000C2C019821A821B821C82809156028A3072
:1047300008F083C047E158E1BE016F5F7F4FC801B9
:104740000E949913882309F49DC049E057E1BE01F6
:104750006F5F7F4FC8010E949913882309F492C0AC
:104760004AEC57E1BE016F5F7F4FC8010E94991369
:10477000882309F487C045E056E1BE016F5F7F4F93
:10478000C8010E949913882309F47CC04BED56E1BF
:10479000BE016F5F7F4FC8010E949913882309F4FF
:1047A00071C04CEB56E1BE016F5F7F4FC8010E94A4
:1047B0009913882309F466C010925602809163020F
:1047C00090E044E050E0BE016F5F7F4F88599D4FFD
:1047D0000E948E2C21E020931602892B09F044C000
:1047E000E12C8E2D8F296396EDE00C94132C80E044
:1047F00055CFF0900F02FF2009F48DCF80910D026C
:1048000090910E020E94D319059708F484CF44E0DA
:1048100050E06BE572E0C8010E948E2C892B59F0A4
:1048200084E0EBE5F2E0D80101900D928A95E1F782
:1048300010920F0271CFF12CFBCF8091100290915A
:1048400011020E94D319843F914008F073CF8091E8
:104850001602882329F284E0FE013196DF011D92C1
:104860008A95E9F710921602E0916302F0E0E859A8
:10487000FD4F89819A81AB81BC8180839183A28322
:10488000B383AFCF809156028F3F31F08F5F80931B
:1048900056028A3008F492CF0E94E21990931102D6
:1048A00080931002D4CFC0906302D12CF601E85956
:1048B000FD4F6F0184E0F801A9E2B2E001900D9292
:1048C0008A95E1F764E070E089E292E00E94630A71
:1048D0008093280284E0EDE2F2E0D60101900D928F
:1048E0008A95E1F788E0E6E1F3E0A2E3B2E0019027
:1048F0000D928A95E1F768E070E082E392E00E9411
:10490000630A8093310280903A0290903B02A0901B
:104910003C02B0903D028091120290911302A0914E
:104920001402B091150288169906AA06BB06B1F0CA
:104930008092120290921302A0921402B092150279
:104940000E94E209861A970AA80AB90A80925702B9
:1049500090925802A0925902B0925A028BE0EEE374
:10496000F2E0DE01119601900D928A95E1F729811E
:10497000822F869586950A81DB80CC801B851092DC
:1049800048021123A1F010FF0AC09091C00220FF3D
:1049900015C091609093C00260E00E94B51511FFB0
:1049A00006C020E04C2D6D2D802F0E945814809160
:1049B0004902882371F00E940A1413CF9E7F9093BE
:1049C000C002809183028160809383020E94E50A85
:1049D000E6CF0E94EF1305CFA6E0B0E0E2EFF4E2ED
:1049E0000C94002C0E94E2198C0180910B02909192
:1049F0000C028017910781F019821A820E94E21935
:104A0000682F49815A81792F80E090E00E94972099
:104A100010930C0200930B022696E4E00C941C2CDD
:104A20001F921FB61F9211248F939F93AF93BF9332
:104A300080912603811113C0809127039091280350
:104A4000A0912903B0912A034196A11DB11D809325
:104A5000270390932803A0932903B0932A03BF91BF
:104A6000AF919F918F911F901FBE1F901895CDB74A
:104A7000DEB728970FB6F894DEBF0FBECDBF85B75F
:104A8000806885BF85B7806885BF84B7877F84BF0E
:104A90000FB6F894A89580916000886180936000BB
:104AA000109260000FBE80E890E00FB6F8948093FB
:104AB0006100909361000FBE88E19BE09093CD016F
:104AC0008093CC010E9483080E9424098091E20017
:104AD00084608093E2007894809138038823A1F069
:104AE0001091E9001F709091EC00892F817090FD6A
:104AF00080E8182B1092E9008091E80083FD0E9465
:104B0000CE0F1F701093E90082E084BD93E095BD45
:104B10009AEF97BD80936E00109257021092580240
:104B20001092590210925A028091D80080618093AD
:104B3000D8002AE12A95F1F700C08091D900182FFA
:104B4000117080FD04C00E948308109238031093F6
:104B50001E0310931F0310934801112309F431C25F
:104B6000109253018AE0809354010E947C2AE6E16E
:104B7000F3E088E0DF011D928A95E9F78091480112
:104B800091E0892780937B028091480190937E0277
:104B90008091480180914801811106C085E380938E
:104BA0005F0186E68093600160E080E00E94970AE2
:104BB00061E080E00E94970AEFE8F1E03197F1F7B9
:104BC00000C0000010E080917E02181708F4FFC1B9
:104BD000809148018091480194E0811190E0909388
:104BE000640284E0891B8093630284E30E941E0BAD
:104BF00086EC0E941E0B87E90E941E0B84E90E942E
:104C00001E0B01EA11E059EAE52E51E0F52ED8011C
:104C10008D918D018F3F11F00E941E0BE016F10661
:104C2000B1F788E0E8E6F2E0DF01282F1D922A952F
:104C3000E9F7EBE5F2E0DF011D928A95E9F790E0F4
:104C400080E00E94B22C853E9E4F09F461C065EE63
:104C50007EEF90E080E00E94E62C60E082E090E051
:104C60000E94C82C81E090E09093C9028093C80212
:104C700061E083E090E00E94C82C60E074E184E091
:104C800090E00E94E62C60E086E090E00E94C82C54
:104C900060E087E090E00E94C82C40E050E0BA015C
:104CA00088E090E00E94DA2C60E083E290E00E94CD
:104CB000C82C60E08CE090E00E94C82C60E08DE0A1
:104CC00090E00E94C82C19821A821B821C821D82CD
:104CD0001E821F82188648E050E067E170E0CE0136
:104CE00001960E94B82C40E050E0BA018FE190E0BC
:104CF0000E94DA2C40E050E0BA018FE090E00E9480
:104D0000DA2C40E050E0BA0183E190E00E94DA2C16
:104D100082E090E00E94A42C8093700284E090E0F6
:104D20000E94B22C909366028093650283E090E02B
:104D30000E94A42C90E00E94740E82E080930C03E9
:104D400080E880937F030E941A296BE070E083E47F
:104D500094E00E94E2138823E9F180910C0365E05E
:104D600070E081FD46C18EE394E00E94E213882347
:104D700089F16DE070E08CE294E00E94E2138823F8
:104D800049F10E94E209605A75418F4F9F4F60932D
:104D90000E0370930F038093100390931103E2E8C6
:104DA000F3E080E094E0DF019C011D92215030404F
:104DB000E1F7F0938907E09388078FEF9FEF9093D7
:104DC00081038093800381E0809315038093120315
:104DD00010920D0380916702811183C088E090E0FA
:104DE0000E94AC2C4B015C0183E290E00E94A42C59
:104DF000282F30E040E050E060E070E080E090E09C
:104E000000E20E944F2C282939294A295B29209346
:104E1000C0023093C1024093C2025093C302609318
:104E2000C4027093C5028093C6029093C70230916A
:104E300083023360309383022C7F09F042C025E067
:104E40002093C0021092C1022FEF2093C202209340
:104E5000C3021092C40225E030E04FEF5FEF60E044
:104E60000E94321488E090E00E94AC2C6B017C011F
:104E700083E290E00E94A42C282F30E040E050E034
:104E800060E070E080E090E00E944F2CB22FA32FF2
:104E9000F42FE52F5B0197018601BC29A12BFE2988
:104EA000E32BB093C002A093C102F093C202E0933F
:104EB000C3026093C402B092C5028093C60290936D
:104EC000C7020E94090B0E94790A8091C00280FFEC
:104ED00005C060E0869586950E94B51581E08093B7
:104EE000670280911E03811102C00E947F2A89E41B
:104EF00091E0909323038093220328E1A22EB12C0A
:104F000032E1432E44E0842E912C3324339480915B
:104F10003803853049F480913803853009F46CC03A
:104F20000E94B80F0E94520A0E94FE2281E7E82EDA
:104F300082E0F82E98E6C92E92E0D92ED601F7012C
:104F400091918D9122E0E937F20709F489C0981711
:104F5000B9F320901E0310E0D6010D916D01F70109
:104F600051907F01501629F1712C662463945026CC
:104F7000852D8621B1F02220A1F079821A830E942A
:104F8000E2199C838B833D8291E0862D802309F476
:104F900090E09E8349815A816B817C818D810E9442
:104FA00097207394660CF8E07F12E2CFF7013197F7
:104FB00000831F5F183081F60E94350BDD24D394E7
:104FC00054C08AE08093530180935401D0CD60E0B7
:104FD000812F0E947B0A082F61E0812F0E947B0AAB
:104FE000E12FF0E0E458FD4F880F802B80831F5F96
:104FF000EACD89E394E0B9CE80913803843021F181
:105000000E94EF131092260330E40FB6F894A8958F
:10501000A09260000FBE3093600083B7817F8460F0
:1050200083BF83B7816083BF7894889583B78E7F71
:1050300083BF0FB6F894A895809160008861809333
:105040006000109260000FBE0E94FE22E8E6F2E0CF
:105050008191811181C082E0E037F807C9F75BCF09
:10506000981377CF0E94EC24D12CE0901E03EE2001
:1050700019F00E946318E82E80917F02882351F076
:1050800010927F0280911803809319038091160378
:1050900080931703F12C80917E02F81688F080919E
:1050A0001E03882319F00E946318E82AEE2009F4F1
:1050B00043C00E94350B0E9422210E940A1440C066
:1050C00061E08F2D0E947B0A182F60E08F2D0E94D7
:1050D0007B0AE12FEE0F8E2B0F2D10E0D801A45884
:1050E000BD4FEC919E2F9370891721F1EE0FEE0FBB
:1050F000E82BEC9380917B028F0DEF70F0E0E75589
:10510000FE4F07581D4FC080D8019C91C90ECC920C
:10511000B3E060E0BC1524F0EDEFCE161CF461E0C6
:105120000E94BA0A8C2DCC0C990BB4010E94352C2C
:10513000D8018C93F394AFCF0E942221D110BDCF20
:105140000E94520A90918002891709F4E0CE809360
:1051500080020E94E209DBCE80913703882309F4A4
:10516000DACE90E199BD49BC09B400FEFDCF809133
:10517000D8008F7D8093D8008091E000826080937A
:10518000E0008091E00081FDFCCF0E94B80FC3CE0B
:10519000EF92FF920F931F93CF93DF93182FEB01A2
:1051A0001092BC0084EA8093BC000E94E2197C014A
:1051B0008091BC0087FF27C08091B900887F88302C
:1051C00029F08091B900887F803189F51093BB0068
:1051D00084E88093BC000E94E2198C018091BC009D
:1051E00087FF1EC02091B900287F90E080E0283121
:1051F00091F081E090E0203411F490E080E091950E
:105200008195910908C0C7010E94D319C817D90711
:1052100078F68EEF9FEFCDB7DEB7E6E00C941A2C50
:10522000C8010E94D319C817D907C0F6F2CF8FEF73
:105230009FEFF1CF1092B9008CE08093B8000895F1
:105240000F931F93CF93DF93EB018093BB0084E810
:105250008093BC000E94E2198C018091BC0087FF02
:1052600011C02091B900287F81E090E0283211F42C
:1052700090E080E0919581959109DF91CF911F9108
:105280000F910895CF3FDC0741F3C8010E94D31965
:10529000C817D90710F78EEF9FEFEFCFB0E0A0E06F
:1052A000E4E5F9E20C94F72B782E5B016A018901A1
:1052B0000E94E2194C01C1E0D0E00431110558F020
:1052C000C5E0D0E00F3F100731F0C80164E170E0A5
:1052D0000E94DE2BEB01BE01872D0E94C8287C01B5
:1052E00097FF09C00F3F1007B1F3C4010E94D31903
:1052F0000817190780F7E501CA0CDB1CCC15DD0582
:1053000011F0F7FE09C084E98093BC00C701CDB756
:10531000DEB7EDE00C94132CB80189910E9420298E
:105320007C01ECCFB0E0A0E0E8E9F9E20C94F72BC7
:10533000782E5B016A0189010E94E2194C01C1E0EB
:10534000D0E00431110558F0C5E0D0E00F3F100760
:1053500031F0C80164E170E00E94DE2BEB01BE0178
:10536000872D0E94C8287C0197FF09C00F3F1007B6
:10537000B1F3C4010E94D3190817190780F7E5019A
:10538000CA0CDB1CCC15DD0511F0F7FE09C084E961
:105390008093BC00C701CDB7DEB7EDE00C94132CB1
:1053A000FE018491B8010E9420297C012196EACF58
:1053B000B0E0A0E0EEEDF9E20C94F62B682E762E2C
:1053C0005A0169010E94E2194C01C1E0D0E00431A8
:1053D000110558F0C5E0D0E00F3F100731F0C801CB
:1053E00064E170E00E94DE2BEB01BE01862D0E947D
:1053F000C8287C0197FF1DC00F3F1007B1F3C401FF
:105400000E94D3190817190780F784E98093BC001C
:10541000C701CDB7DEB7EEE00C94122CB80189912C
:105420000E9420297C01CC16DD0679F3F7FEF6CF29
:10543000ECCFB801872D0E9420297C01E501CA0C20
:10544000DB1CF1CF8EE14A9B02C08150E1F74A9B01
:10545000FECF08955A9880E28A95F1F75A9A0895F6
:10546000FC013BE03A95F1F798E020E080E031E084
:1054700040E14A95F1F7880F4A9B02C081602327DB
:1054800042E04A95F1F7000040E14A95F1F791506A
:1054900079F790E19A95F1F799B132E03A95F1F701
:1054A000000040E14A95F1F792FB992790F9922785
:1054B0002081920F90830895A1E0B0E0E2E6FAE245
:1054C0000C94FE2B19828C017C01E60EF11C0E154A
:1054D0001F0541F481E09981911180E02196E6E079
:1054E0000C941A2C0E94222ACE0101960E94302A86
:1054F000F80181938F01EBCF529A5A9A08955298EE
:105500005A9AEA9AE9E6F0E080818F7C80830895D8
:105510006150770B91E001C0990F6A95EAF720E09E
:1055200031E0911108C0222391F05A9A80E28A95C5
:10553000F1F75A980895492F482339F05A9A2327AA
:1055400040E24A95F1F79695ECCF5A98F9CF5A98E0
:10555000EDCFFF920F931F93CF93DF93EC018C015C
:10556000060F111DC017D10729F4CDB7DEB7E5E04E
:105570000C941B2CF9900E942A2A68E08F2D0E941F
:10558000882AF0CF1F920F920FB60F9211240F931B
:105590001F932F933F934F935F936F937F938F93BB
:1055A0009F93AF93BF93EF93FF93CF93DF930F92AC
:1055B000CDB7DEB719820E94222ACE0101960E9441
:1055C000302A082F069506950695282F22952570D6
:1055D000902F9570290F922F937026952695920FF4
:1055E000982797708981982B09F05CC00A3008F0E1
:1055F00059C080E18A95F1F75A9A529A82E08A95C9
:10560000F1F700C05A9888E0089F80011124D80162
:10561000A050BF4F1696ED91FC9117973097A9F0C7
:1056200060919B0170919C0114962D913C9115976E
:10563000260F371F11968D919C911297680F791F35
:1056400013964C9113978C910995F801E050FF4FF8
:105650006381662351F020919B0130919C018481EC
:105660009581820F931F0E94A92A0E942A2A80E115
:105670008A95F1F75A9852985A9A80E18A95F1F7EB
:10568000F801E050FF4F6081662351F020919B01AB
:1056900030919C0181819281820F931F0E945C2A2C
:1056A0000E94222A0F90DF91CF91FF91EF91BF913D
:1056B000AF919F918F917F916F915F914F913F91AA
:1056C0002F911F910F910F900FBE0F901F90189563
:1056D0000F931F93CF93DF93EC010A970CF04CC00C
:1056E000F894529A5A9885E08A95F1F700009C2F19
:1056F000969595708C2F8570980F892F837096954D
:10570000969523E0CC0FDD1F2A95E1F7980F8E01C7
:10571000092B0E942A2A00C068E0802F0E94882A54
:1057200080E18A95F1F752985A9A4A9B1EC087E009
:1057300090E04A991CC0FE01E050FF4F6381662350
:10574000F9F020919B0130919C0184819581820F19
:10575000931F0E945C2A811113C0529A5A9A78941E
:10576000DF91CF911F910F91089500C0DECF019777
:1057700029F4529A5A9A789480E0F2CF00C0D9CF97
:105780000E94222A80E28A95F1F75A98529A80E183
:105790008A95F1F7C050DF4F6881662351F0209160
:1057A0009B0130919C0189819A81820F931F0E94F5
:1057B000A92A0E942A2A789481E0D2CFAA1BBB1B77
:1057C00051E107C0AA1FBB1FA617B70710F0A61B01
:1057D000B70B881F991F5A95A9F780959095BC0122
:1057E000CD0108952F923F924F925F926F927F92D8
:1057F0008F929F92AF92BF92CF92DF92EF92FF92E1
:105800000F931F93CF93DF93CDB7DEB7CA1BDB0B8C
:105810000FB6F894DEBF0FBECDBF09942A88398831
:1058200048885F846E847D848C849B84AA84B98438
:10583000C884DF80EE80FD800C811B81AA81B98144
:10584000CE0FD11D0FB6F894DEBF0FBECDBFED0158
:105850000895991B79E004C0991F961708F0961BCC
:10586000881F7A95C9F78095089597FB072E16F43F
:10587000009407D077FD09D00E94DE2B07FC05D0ED
:105880003EF4909581959F4F0895709561957F4F57
:105890000895EE0FFF1F0590F491E02D0994002E5E
:1058A000083090F0982F872F762F652F542F432F95
:1058B000322F22270850F4CF220F331F441F551FC9
:1058C000661F771F881F991F0A95B2F7002D08954C
:1058D00097FD1094002E083098F00850232F342F95
:1058E000452F562F672F782F892F912DF4CF1594A0
:1058F0009795879577956795579547953795279508
:105900000A95AAF71124002D0895FB01DC0102C0BD
:1059100005900D9241505040D8F70895FB01DC01ED
:1059200004C08D910190801921F441505040C8F776
:10593000881B990B0895FB01DC0102C001900D92B8
:1059400041505040D8F70895F999FECF92BD81BDDE
:10595000F89A992780B50895A6E1B0E044E050E0B8
:105960000C94EE2CA8E1B0E042E050E00C94EE2C58
:10597000DC01A40FB51F4150504048F0CB01840F0B
:10598000951F2E910E94C92C41505040D0F7089588
:10599000262FF999FECF92BD81BDF89A019700B4E8
:1059A000021639F01FBA20BD0FB6F894FA9AF99A88
:1059B0000FBE08950396272F0E94C92C0E94C82C61
:1059C000252F0E94C92C242F0C94C92C0196272F17
:1059D0000E94C92C0C94C82CDC01CB01FC01F99964
:1059E000FECF06C0F2BDE1BDF89A319600B40D922B
:1059F00041505040B8F70895F894FFCFAD10D5103E
:105A00006D12D5106D12081129116D122612331264
:105A1000891A8D1A6B1A851A911A951A991AF41AFD
:105A2000691BFC1AC61ACA1A001BCE1A041B101BCB
:105A3000DA1A621BDE1A141BE21A181B401BE61A44
:105A40001C1B471BEC1A221B2A1BD21A081BD61A36
:105A50000C1BF01A261B361B501B601BC01AF81AB1
:105A6000701B721C721CAA1CAA1C521DD21CD21CB8
:105A7000D21C6E1DF61D051E051E791BA21BA91B3F
:105A8000AE1BB31BB81BBD1BC21BC71BCC1BD11B42
:105A9000D61B711A711A711A711A711A711A711A48
:105AA000711A711A9721E821EB21EE21F121F421DD
:025AB000F721DC
:105AB20000000001000000000000000401000000DE
:105AC20004050000000000000000000109000000C1
:105AD200000000080A0000000000000000001A0B8D
